{
  "contractName": "TollPlaza",
  "abi": [
    {
      "inputs": [],
      "stateMutability": "nonpayable",
      "type": "constructor"
    },
    {
      "inputs": [
        {
          "internalType": "uint256",
          "name": "",
          "type": "uint256"
        }
      ],
      "name": "Toll_list",
      "outputs": [
        {
          "internalType": "string",
          "name": "toll_plaza_id",
          "type": "string"
        },
        {
          "internalType": "string",
          "name": "toll_plaza_name",
          "type": "string"
        },
        {
          "internalType": "uint256",
          "name": "time",
          "type": "uint256"
        }
      ],
      "stateMutability": "view",
      "type": "function",
      "constant": true
    },
    {
      "inputs": [],
      "name": "owner",
      "outputs": [
        {
          "internalType": "address payable",
          "name": "",
          "type": "address"
        }
      ],
      "stateMutability": "view",
      "type": "function",
      "constant": true
    },
    {
      "inputs": [
        {
          "internalType": "uint256",
          "name": "",
          "type": "uint256"
        }
      ],
      "name": "vehicle_Accts",
      "outputs": [
        {
          "internalType": "address",
          "name": "",
          "type": "address"
        }
      ],
      "stateMutability": "view",
      "type": "function",
      "constant": true
    },
    {
      "inputs": [
        {
          "internalType": "string",
          "name": "_vehnum",
          "type": "string"
        },
        {
          "internalType": "string",
          "name": "_vehtype",
          "type": "string"
        },
        {
          "internalType": "string",
          "name": "_vehmodel",
          "type": "string"
        }
      ],
      "name": "Register_Vehicle",
      "outputs": [],
      "stateMutability": "nonpayable",
      "type": "function"
    },
    {
      "inputs": [],
      "name": "Charge_balance",
      "outputs": [],
      "stateMutability": "payable",
      "type": "function",
      "payable": true
    },
    {
      "inputs": [
        {
          "internalType": "string",
          "name": "_name",
          "type": "string"
        },
        {
          "internalType": "string",
          "name": "_id",
          "type": "string"
        }
      ],
      "name": "Init_Toll",
      "outputs": [],
      "stateMutability": "nonpayable",
      "type": "function"
    },
    {
      "inputs": [
        {
          "internalType": "string",
          "name": "_vehnum",
          "type": "string"
        },
        {
          "internalType": "string",
          "name": "_vehtype",
          "type": "string"
        },
        {
          "internalType": "string",
          "name": "_vehmodel",
          "type": "string"
        }
      ],
      "name": "Check_ownership",
      "outputs": [
        {
          "internalType": "bool",
          "name": "",
          "type": "bool"
        }
      ],
      "stateMutability": "view",
      "type": "function",
      "constant": true
    },
    {
      "inputs": [
        {
          "internalType": "string",
          "name": "_id",
          "type": "string"
        },
        {
          "internalType": "string",
          "name": "_tollname",
          "type": "string"
        },
        {
          "internalType": "string",
          "name": "_vehnum",
          "type": "string"
        },
        {
          "internalType": "string",
          "name": "_type",
          "type": "string"
        },
        {
          "internalType": "string",
          "name": "_vehmodel",
          "type": "string"
        }
      ],
      "name": "Pay_Tolltax",
      "outputs": [
        {
          "internalType": "bool",
          "name": "",
          "type": "bool"
        }
      ],
      "stateMutability": "nonpayable",
      "type": "function"
    },
    {
      "inputs": [
        {
          "internalType": "string",
          "name": "_num",
          "type": "string"
        }
      ],
      "name": "get_History",
      "outputs": [
        {
          "components": [
            {
              "internalType": "string",
              "name": "toll_plaza_id",
              "type": "string"
            },
            {
              "internalType": "string",
              "name": "toll_plaza_name",
              "type": "string"
            },
            {
              "internalType": "uint256",
              "name": "time",
              "type": "uint256"
            }
          ],
          "internalType": "struct TollPlaza.Toll[]",
          "name": "",
          "type": "tuple[]"
        }
      ],
      "stateMutability": "view",
      "type": "function",
      "constant": true
    },
    {
      "inputs": [
        {
          "internalType": "string",
          "name": "_num",
          "type": "string"
        },
        {
          "internalType": "string",
          "name": "_type",
          "type": "string"
        }
      ],
      "name": "get_paidhistory",
      "outputs": [
        {
          "internalType": "uint256",
          "name": "",
          "type": "uint256"
        }
      ],
      "stateMutability": "view",
      "type": "function",
      "constant": true
    },
    {
      "inputs": [],
      "name": "withdraw_amount",
      "outputs": [],
      "stateMutability": "nonpayable",
      "type": "function"
    },
    {
      "inputs": [],
      "name": "destroy",
      "outputs": [],
      "stateMutability": "nonpayable",
      "type": "function"
    },
    {
      "inputs": [],
      "name": "check_balance",
      "outputs": [
        {
          "internalType": "uint256",
          "name": "",
          "type": "uint256"
        }
      ],
      "stateMutability": "view",
      "type": "function",
      "constant": true
    },
    {
      "inputs": [],
      "name": "get_owner",
      "outputs": [
        {
          "internalType": "address",
          "name": "",
          "type": "address"
        }
      ],
      "stateMutability": "view",
      "type": "function",
      "constant": true
    }
  ],
  "bytecode": "0x6080604052620186a060005562030d406001556207a12060025534801561002557600080fd5b5033600360006101000a81548173ffffffffffffffffffffffffffffffffffffffff021916908373ffffffffffffffffffffffffffffffffffffffff160217905550612122806100766000396000f3fe6080604052600436106100dd5760003560e01c80637d1b6ed41161007f57806398ba1d461161005957806398ba1d46146102a3578063b2b70927146102ce578063b7aa15e01461030b578063bf5eecc014610334576100dd565b80637d1b6ed41461022457806383197ef0146102615780638da5cb5b14610278576100dd565b806328d0d223116100bb57806328d0d22314610189578063419828ea146101a0578063547e1708146101dd5780636b4330f71461021a576100dd565b80630ac298dc146100e257806311e3e9721461010d5780631fb12cb41461014a575b600080fd5b3480156100ee57600080fd5b506100f761035d565b60405161010491906114c4565b60405180910390f35b34801561011957600080fd5b50610134600480360381019061012f9190611639565b610387565b6040516101419190611833565b60405180910390f35b34801561015657600080fd5b50610171600480360381019061016c9190611881565b610532565b60405161018093929190611907565b60405180910390f35b34801561019557600080fd5b5061019e61067c565b005b3480156101ac57600080fd5b506101c760048036038101906101c29190611881565b610755565b6040516101d491906114c4565b60405180910390f35b3480156101e957600080fd5b5061020460048036038101906101ff919061194c565b610794565b60405161021191906119c4565b60405180910390f35b6102226108d1565b005b34801561023057600080fd5b5061024b600480360381019061024691906119df565b610a01565b6040516102589190611b01565b60405180910390f35b34801561026d57600080fd5b50610276610dbf565b005b34801561028457600080fd5b5061028d610e8a565b60405161029a9190611b3d565b60405180910390f35b3480156102af57600080fd5b506102b8610eb0565b6040516102c591906119c4565b60405180910390f35b3480156102da57600080fd5b506102f560048036038101906102f09190611b58565b610ef7565b6040516103029190611b01565b60405180910390f35b34801561031757600080fd5b50610332600480360381019061032d919061194c565b610fe8565b005b34801561034057600080fd5b5061035b60048036038101906103569190611b58565b611100565b005b6000600360009054906101000a900473ffffffffffffffffffffffffffffffffffffffff16905090565b60606008826040516103999190611c3b565b9081526020016040518091039020805480602002602001604051908101604052809291908181526020016000905b8282101561052757838290600052602060002090600302016040518060600160405290816000820180546103fa90611c81565b80601f016020809104026020016040519081016040528092919081815260200182805461042690611c81565b80156104735780601f1061044857610100808354040283529160200191610473565b820191906000526020600020905b81548152906001019060200180831161045657829003601f168201915b5050505050815260200160018201805461048c90611c81565b80601f01602080910402602001604051908101604052809291908181526020018280546104b890611c81565b80156105055780601f106104da57610100808354040283529160200191610505565b820191906000526020600020905b8154815290600101906020018083116104e857829003601f168201915b50505050508152602001600282015481525050815260200190600101906103c7565b505050509050919050565b6007818154811061054257600080fd5b906000526020600020906003020160009150905080600001805461056590611c81565b80601f016020809104026020016040519081016040528092919081815260200182805461059190611c81565b80156105de5780601f106105b3576101008083540402835291602001916105de565b820191906000526020600020905b8154815290600101906020018083116105c157829003601f168201915b5050505050908060010180546105f390611c81565b80601f016020809104026020016040519081016040528092919081815260200182805461061f90611c81565b801561066c5780601f106106415761010080835404028352916020019161066c565b820191906000526020600020905b81548152906001019060200180831161064f57829003601f168201915b5050505050908060020154905083565b600360009054906101000a900473ffffffffffffffffffffffffffffffffffffffff1673ffffffffffffffffffffffffffffffffffffffff163373ffffffffffffffffffffffffffffffffffffffff161461070c576040517f08c379a000000000000000000000000000000000000000000000000000000000815260040161070390611cfe565b60405180910390fd5b3373ffffffffffffffffffffffffffffffffffffffff166108fc479081150290604051600060405180830381858888f19350505050158015610752573d6000803e3d6000fd5b50565b6006818154811061076557600080fd5b906000526020600020016000915054906101000a900473ffffffffffffffffffffffffffffffffffffffff1681565b6000806000905060006107a685610387565b90506040518060400160405280600381526020017f6361720000000000000000000000000000000000000000000000000000000000815250805190602001208480519060200120036108085760005481516108019190611d4d565b91506108c6565b6040518060400160405280600381526020017f76616e0000000000000000000000000000000000000000000000000000000000815250805190602001208480519060200120036108685760015481516108619190611d4d565b91506108c5565b6040518060400160405280600381526020017f6275730000000000000000000000000000000000000000000000000000000000815250805190602001208480519060200120036108c45760025481516108c19190611d4d565b91505b5b5b819250505092915050565b60005b6006805490508110156109fe57600681815481106108f5576108f4611d8f565b5b9060005260206000200160009054906101000a900473ffffffffffffffffffffffffffffffffffffffff1673ffffffffffffffffffffffffffffffffffffffff163373ffffffffffffffffffffffffffffffffffffffff16036109eb5734600560006006848154811061096b5761096a611d8f565b5b9060005260206000200160009054906101000a900473ffffffffffffffffffffffffffffffffffffffff1673ffffffffffffffffffffffffffffffffffffffff1673ffffffffffffffffffffffffffffffffffffffff16815260200190815260200160002060008282546109df9190611dbe565b925050819055506109fe565b80806109f690611df2565b9150506108d4565b50565b60008060009050610a13858585610ef7565b15610db2576040518060400160405280600381526020017f6361720000000000000000000000000000000000000000000000000000000000815250805190602001208480519060200120148015610aab5750600054600560003373ffffffffffffffffffffffffffffffffffffffff1673ffffffffffffffffffffffffffffffffffffffff1681526020019081526020016000205410155b15610b1157600054600560003373ffffffffffffffffffffffffffffffffffffffff1673ffffffffffffffffffffffffffffffffffffffff1681526020019081526020016000206000828254610b019190611e3a565b9250508190555060019050610d0a565b6040518060400160405280600381526020017f76616e0000000000000000000000000000000000000000000000000000000000815250805190602001208480519060200120148015610ba45750600154600560003373ffffffffffffffffffffffffffffffffffffffff1673ffffffffffffffffffffffffffffffffffffffff1681526020019081526020016000205410155b15610c0a57600154600560003373ffffffffffffffffffffffffffffffffffffffff1673ffffffffffffffffffffffffffffffffffffffff1681526020019081526020016000206000828254610bfa9190611e3a565b9250508190555060019050610d09565b6040518060400160405280600381526020017f6275730000000000000000000000000000000000000000000000000000000000815250805190602001208480519060200120148015610c9d5750600254600560003373ffffffffffffffffffffffffffffffffffffffff1673ffffffffffffffffffffffffffffffffffffffff1681526020019081526020016000205410155b15610d0357600254600560003373ffffffffffffffffffffffffffffffffffffffff1673ffffffffffffffffffffffffffffffffffffffff1681526020019081526020016000206000828254610cf39190611e3a565b9250508190555060019050610d08565b600090505b5b5b6001151581151503610db157600885604051610d269190611c3b565b908152602001604051809103902060405180606001604052808981526020018881526020014281525090806001815401808255809150506001900390600052602060002090600302016000909190919091506000820151816000019081610d8d919061201a565b506020820151816001019081610da3919061201a565b506040820151816002015550505b5b8091505095945050505050565b600360009054906101000a900473ffffffffffffffffffffffffffffffffffffffff1673ffffffffffffffffffffffffffffffffffffffff163373ffffffffffffffffffffffffffffffffffffffff1614610e4f576040517f08c379a0000000000000000000000000000000000000000000000000000000008152600401610e4690611cfe565b60405180910390fd5b600360009054906101000a900473ffffffffffffffffffffffffffffffffffffffff1673ffffffffffffffffffffffffffffffffffffffff16ff5b600360009054906101000a900473ffffffffffffffffffffffffffffffffffffffff1681565b6000600560003373ffffffffffffffffffffffffffffffffffffffff1673ffffffffffffffffffffffffffffffffffffffff16815260200190815260200160002054905090565b600080600090506000610f093361122f565b90506000815114610fdc5760005b8151811015610fda578680519060200120828281518110610f3b57610f3a611d8f565b5b60200260200101516000015180519060200120148015610f8657508580519060200120828281518110610f7157610f70611d8f565b5b60200260200101516020015180519060200120145b8015610fbd57508480519060200120828281518110610fa857610fa7611d8f565b5b60200260200101516040015180519060200120145b15610fc757600192505b8080610fd290611df2565b915050610f17565b505b81925050509392505050565b600360009054906101000a900473ffffffffffffffffffffffffffffffffffffffff1673ffffffffffffffffffffffffffffffffffffffff163373ffffffffffffffffffffffffffffffffffffffff1614611078576040517f08c379a000000000000000000000000000000000000000000000000000000000815260040161106f90611cfe565b60405180910390fd5b60006040518060600160405280838152602001848152602001428152509050600781908060018154018082558091505060019003906000526020600020906003020160009091909190915060008201518160000190816110d8919061201a565b5060208201518160010190816110ee919061201a565b50604082015181600201555050505050565b600460003373ffffffffffffffffffffffffffffffffffffffff1673ffffffffffffffffffffffffffffffffffffffff16815260200190815260200160002060405180606001604052808581526020018481526020018381525090806001815401808255809150506001900390600052602060002090600302016000909190919091506000820151816000019081611198919061201a565b5060208201518160010190816111ae919061201a565b5060408201518160020190816111c4919061201a565b5050506006339080600181540180825580915050600190039060005260206000200160009091909190916101000a81548173ffffffffffffffffffffffffffffffffffffffff021916908373ffffffffffffffffffffffffffffffffffffffff160217905550505050565b6060600460008373ffffffffffffffffffffffffffffffffffffffff1673ffffffffffffffffffffffffffffffffffffffff168152602001908152602001600020805480602002602001604051908101604052809291908181526020016000905b8282101561147857838290600052602060002090600302016040518060600160405290816000820180546112c390611c81565b80601f01602080910402602001604051908101604052809291908181526020018280546112ef90611c81565b801561133c5780601f106113115761010080835404028352916020019161133c565b820191906000526020600020905b81548152906001019060200180831161131f57829003601f168201915b5050505050815260200160018201805461135590611c81565b80601f016020809104026020016040519081016040528092919081815260200182805461138190611c81565b80156113ce5780601f106113a3576101008083540402835291602001916113ce565b820191906000526020600020905b8154815290600101906020018083116113b157829003601f168201915b505050505081526020016002820180546113e790611c81565b80601f016020809104026020016040519081016040528092919081815260200182805461141390611c81565b80156114605780601f1061143557610100808354040283529160200191611460565b820191906000526020600020905b81548152906001019060200180831161144357829003601f168201915b50505050508152505081526020019060010190611290565b505050509050919050565b600073ffffffffffffffffffffffffffffffffffffffff82169050919050565b60006114ae82611483565b9050919050565b6114be816114a3565b82525050565b60006020820190506114d960008301846114b5565b92915050565b6000604051905090565b600080fd5b600080fd5b600080fd5b600080fd5b6000601f19601f8301169050919050565b7f4e487b7100000000000000000000000000000000000000000000000000000000600052604160045260246000fd5b611546826114fd565b810181811067ffffffffffffffff821117156115655761156461150e565b5b80604052505050565b60006115786114df565b9050611584828261153d565b919050565b600067ffffffffffffffff8211156115a4576115a361150e565b5b6115ad826114fd565b9050602081019050919050565b82818337600083830152505050565b60006115dc6115d784611589565b61156e565b9050828152602081018484840111156115f8576115f76114f8565b5b6116038482856115ba565b509392505050565b600082601f8301126116205761161f6114f3565b5b81356116308482602086016115c9565b91505092915050565b60006020828403121561164f5761164e6114e9565b5b600082013567ffffffffffffffff81111561166d5761166c6114ee565b5b6116798482850161160b565b91505092915050565b600081519050919050565b600082825260208201905092915050565b6000819050602082019050919050565b600081519050919050565b600082825260208201905092915050565b60005b838110156116e85780820151818401526020810190506116cd565b60008484015250505050565b60006116ff826116ae565b61170981856116b9565b93506117198185602086016116ca565b611722816114fd565b840191505092915050565b6000819050919050565b6117408161172d565b82525050565b6000606083016000830151848203600086015261176382826116f4565b9150506020830151848203602086015261177d82826116f4565b91505060408301516117926040860182611737565b508091505092915050565b60006117a98383611746565b905092915050565b6000602082019050919050565b60006117c982611682565b6117d3818561168d565b9350836020820285016117e58561169e565b8060005b858110156118215784840389528151611802858261179d565b945061180d836117b1565b925060208a019950506001810190506117e9565b50829750879550505050505092915050565b6000602082019050818103600083015261184d81846117be565b905092915050565b61185e8161172d565b811461186957600080fd5b50565b60008135905061187b81611855565b92915050565b600060208284031215611897576118966114e9565b5b60006118a58482850161186c565b91505092915050565b600082825260208201905092915050565b60006118ca826116ae565b6118d481856118ae565b93506118e48185602086016116ca565b6118ed816114fd565b840191505092915050565b6119018161172d565b82525050565b6000606082019050818103600083015261192181866118bf565b9050818103602083015261193581856118bf565b905061194460408301846118f8565b949350505050565b60008060408385031215611963576119626114e9565b5b600083013567ffffffffffffffff811115611981576119806114ee565b5b61198d8582860161160b565b925050602083013567ffffffffffffffff8111156119ae576119ad6114ee565b5b6119ba8582860161160b565b9150509250929050565b60006020820190506119d960008301846118f8565b92915050565b600080600080600060a086880312156119fb576119fa6114e9565b5b600086013567ffffffffffffffff811115611a1957611a186114ee565b5b611a258882890161160b565b955050602086013567ffffffffffffffff811115611a4657611a456114ee565b5b611a528882890161160b565b945050604086013567ffffffffffffffff811115611a7357611a726114ee565b5b611a7f8882890161160b565b935050606086013567ffffffffffffffff811115611aa057611a9f6114ee565b5b611aac8882890161160b565b925050608086013567ffffffffffffffff811115611acd57611acc6114ee565b5b611ad98882890161160b565b9150509295509295909350565b60008115159050919050565b611afb81611ae6565b82525050565b6000602082019050611b166000830184611af2565b92915050565b6000611b2782611483565b9050919050565b611b3781611b1c565b82525050565b6000602082019050611b526000830184611b2e565b92915050565b600080600060608486031215611b7157611b706114e9565b5b600084013567ffffffffffffffff811115611b8f57611b8e6114ee565b5b611b9b8682870161160b565b935050602084013567ffffffffffffffff811115611bbc57611bbb6114ee565b5b611bc88682870161160b565b925050604084013567ffffffffffffffff811115611be957611be86114ee565b5b611bf58682870161160b565b9150509250925092565b600081905092915050565b6000611c15826116ae565b611c1f8185611bff565b9350611c2f8185602086016116ca565b80840191505092915050565b6000611c478284611c0a565b915081905092915050565b7f4e487b7100000000000000000000000000000000000000000000000000000000600052602260045260246000fd5b60006002820490506001821680611c9957607f821691505b602082108103611cac57611cab611c52565b5b50919050565b7f4f6e6c79206f776e657220697320616c6c6f7765640000000000000000000000600082015250565b6000611ce86015836118ae565b9150611cf382611cb2565b602082019050919050565b60006020820190508181036000830152611d1781611cdb565b9050919050565b7f4e487b7100000000000000000000000000000000000000000000000000000000600052601160045260246000fd5b6000611d588261172d565b9150611d638361172d565b9250828202611d718161172d565b91508282048414831517611d8857611d87611d1e565b5b5092915050565b7f4e487b7100000000000000000000000000000000000000000000000000000000600052603260045260246000fd5b6000611dc98261172d565b9150611dd48361172d565b9250828201905080821115611dec57611deb611d1e565b5b92915050565b6000611dfd8261172d565b91507fffffffffffffffffffffffffffffffffffffffffffffffffffffffffffffffff8203611e2f57611e2e611d1e565b5b600182019050919050565b6000611e458261172d565b9150611e508361172d565b9250828203905081811115611e6857611e67611d1e565b5b92915050565b60008190508160005260206000209050919050565b60006020601f8301049050919050565b600082821b905092915050565b600060088302611ed07fffffffffffffffffffffffffffffffffffffffffffffffffffffffffffffffff82611e93565b611eda8683611e93565b95508019841693508086168417925050509392505050565b6000819050919050565b6000611f17611f12611f0d8461172d565b611ef2565b61172d565b9050919050565b6000819050919050565b611f3183611efc565b611f45611f3d82611f1e565b848454611ea0565b825550505050565b600090565b611f5a611f4d565b611f65818484611f28565b505050565b5b81811015611f8957611f7e600082611f52565b600181019050611f6b565b5050565b601f821115611fce57611f9f81611e6e565b611fa884611e83565b81016020851015611fb7578190505b611fcb611fc385611e83565b830182611f6a565b50505b505050565b600082821c905092915050565b6000611ff160001984600802611fd3565b1980831691505092915050565b600061200a8383611fe0565b9150826002028217905092915050565b612023826116ae565b67ffffffffffffffff81111561203c5761203b61150e565b5b6120468254611c81565b612051828285611f8d565b600060209050601f8311600181146120845760008415612072578287015190505b61207c8582611ffe565b8655506120e4565b601f19841661209286611e6e565b60005b828110156120ba57848901518255600182019150602085019450602081019050612095565b868310156120d757848901516120d3601f891682611fe0565b8355505b6001600288020188555050505b50505050505056fea2646970667358221220e1957d6f85307fad958e32e16e45d38147dfb775db615feaed8868e1d1c5c17f64736f6c63430008110033",
  "immutableReferences": {},
  "source": "// SPDX-License-Identifier: MIT\npragma solidity >=0.4.0;\npragma experimental ABIEncoderV2; //Hint (or distraction): Allows returning arrays from functions\ncontract TollPlaza {\n\nstruct vehicle {\n\n    string vehicle_number;\n    string vehicle_type;\n    string vehicle_model;\n\n}\n\nstruct Toll{\n\n    string toll_plaza_id;\n    string toll_plaza_name;\n    uint256 time; //time enter\n\n}\n\nuint car_tollprice=100000;\nuint van_tollprice=200000;\nuint bus_tollprice=500000;\naddress payable public owner;\nmapping (address => vehicle [] ) vehicles;\nmapping (address => uint) account_balance;\naddress[] public vehicle_Accts;\nToll[] public Toll_list;\nmapping (string => Toll []) vehicle_history;\n\n\n\nmodifier onlyOwner {\nrequire(msg.sender == owner, \"Only owner is allowed\");\n_;\n}\n\nconstructor() {\nowner=payable(msg.sender);\n}\n\nfunction Register_Vehicle(string memory _vehnum,string memory _vehtype,string memory _vehmodel) public {\n\n    vehicles[msg.sender].push(vehicle(_vehnum, _vehtype,_vehmodel));\n\n    vehicle_Accts.push(msg.sender);\n\n}\n\nfunction Charge_balance() payable public{\n\n    for (uint i=0; i<vehicle_Accts.length; i++) {\n        if (msg.sender == vehicle_Accts[i]){\n\n            account_balance[vehicle_Accts[i]] += msg.value;\n            break;\n\n        }\n    \n    }\n}\n\nfunction Init_Toll(string memory _name,string memory _id) onlyOwner public {\n\n    Toll memory toll_obj = Toll(_id,_name,block.timestamp);\n    Toll_list.push(toll_obj); \n\n\n}\n\nfunction getVehicles(address _address)  internal view returns ( vehicle[] memory) {\n    \n    return vehicles[_address];\n\n    }\n\n\nfunction Check_ownership(string memory _vehnum,string memory _vehtype,string memory _vehmodel) public view returns(bool){\n    bool _check=false;\n    vehicle[] memory obj=getVehicles(msg.sender);\n    if (obj.length != 0) {\n        for (uint i=0; i<obj.length; i++) {\n        if( ( keccak256(bytes(obj[i].vehicle_number)) == keccak256(bytes(_vehnum)) ) && ( keccak256(bytes(obj[i].vehicle_type)) == keccak256(bytes(_vehtype)) ) && ( keccak256(bytes(obj[i].vehicle_model)) == keccak256(bytes(_vehmodel)) ) )\n        \n        _check=true;\n\n        }\n\n    }\n\nreturn _check;\n\n}\n\n\nfunction Pay_Tolltax(string memory _id,string memory _tollname,string memory _vehnum,string memory _type,string memory _vehmodel) public returns(bool){\n\n    bool _check=false;\n\n    if(Check_ownership(_vehnum,_type,_vehmodel)){\n\n    if( keccak256(bytes(_type)) == keccak256(bytes(\"car\")) && account_balance[msg.sender] >= car_tollprice){\n    account_balance[msg.sender] -= car_tollprice;\n    _check=true;        \n    }\n    else if( keccak256(bytes(_type)) == keccak256(bytes(\"van\")) && account_balance[msg.sender] >= van_tollprice){\n    account_balance[msg.sender] -= van_tollprice;\n    _check=true;        \n    }\n    else if( keccak256(bytes(_type)) == keccak256(bytes(\"bus\")) && account_balance[msg.sender] >= bus_tollprice){\n    account_balance[msg.sender] -= bus_tollprice;\n    _check=true;        \n    }\n    else{\n    _check=false;    \n    }\n\n    if(_check == true){\n    \n        vehicle_history[_vehnum].push(Toll(_id,_tollname,block.timestamp));\n    \n    }\n\n    }\n\nreturn _check;\n}\n\nfunction get_History(string memory _num) public view returns(Toll[] memory) {\n    return vehicle_history[_num];\n}\n\nfunction get_paidhistory(string memory _num,string memory _type) public view returns(uint){\n\n    uint amount=0;\n    Toll[] memory obj=get_History(_num);\n    if( keccak256(bytes(_type)) == keccak256(bytes(\"car\")) ) {\n\n        amount = obj.length*car_tollprice;\n\n    }\n    else if( keccak256(bytes(_type)) == keccak256(bytes(\"van\")) ){\n\n        amount = obj.length*van_tollprice;\n\n    }\n    else if( keccak256(bytes(_type)) == keccak256(bytes(\"bus\")) ){\n\n        amount = obj.length*bus_tollprice;\n\n    }\n\n        \nreturn amount;       \n\n}\n\nfunction withdraw_amount() public onlyOwner {\n    \n    payable(msg.sender).transfer(address(this).balance);\n\n}\n\nfunction destroy() public onlyOwner {\nselfdestruct(owner);\n}\n\n\nfunction check_balance() public view returns(uint){\n\n    return account_balance[msg.sender];    \n\n}\n\n\n\nfunction get_owner() public view returns(address){\n\n    return owner;\n\n}\n\n}\n\n",
  "sourcePath": "C:\\Users\\zakii\\Desktop\\1965_1746_2160\\backend\\contracts\\TollPlaza.sol",
  "compiler": {
    "name": "solc",
    "version": "0.8.17+commit.8df45f5f.Emscripten.clang"
  },
  "schemaVersion": "3.4.11",
  "updatedAt": "2022-12-05T17:07:03.937Z",
  "networkType": "ethereum",
  "devdoc": {
    "kind": "dev",
    "methods": {},
    "version": 1
  },
  "userdoc": {
    "kind": "user",
    "methods": {},
    "version": 1
  }
}